{
  "_format": "hh-sol-artifact-1",
  "contractName": "Ballot",
  "sourceName": "contracts/Voter.sol",
  "abi": [
    {
      "inputs": [
        {
          "internalType": "string[]",
          "name": "proposalNames",
          "type": "string[]"
        }
      ],
      "stateMutability": "nonpayable",
      "type": "constructor"
    },
    {
      "inputs": [
        {
          "internalType": "address",
          "name": "",
          "type": "address"
        }
      ],
      "name": "VoteStartTime",
      "outputs": [
        {
          "internalType": "uint256",
          "name": "",
          "type": "uint256"
        }
      ],
      "stateMutability": "view",
      "type": "function"
    },
    {
      "inputs": [],
      "name": "VotingHead",
      "outputs": [
        {
          "internalType": "address",
          "name": "",
          "type": "address"
        }
      ],
      "stateMutability": "view",
      "type": "function"
    },
    {
      "inputs": [
        {
          "internalType": "address",
          "name": "to",
          "type": "address"
        }
      ],
      "name": "delegate",
      "outputs": [],
      "stateMutability": "nonpayable",
      "type": "function"
    },
    {
      "inputs": [],
      "name": "duration",
      "outputs": [
        {
          "internalType": "uint256",
          "name": "",
          "type": "uint256"
        }
      ],
      "stateMutability": "view",
      "type": "function"
    },
    {
      "inputs": [
        {
          "internalType": "address",
          "name": "voter",
          "type": "address"
        }
      ],
      "name": "giveRightToVote",
      "outputs": [],
      "stateMutability": "nonpayable",
      "type": "function"
    },
    {
      "inputs": [
        {
          "internalType": "uint256",
          "name": "",
          "type": "uint256"
        }
      ],
      "name": "proposals",
      "outputs": [
        {
          "internalType": "string",
          "name": "name",
          "type": "string"
        },
        {
          "internalType": "uint256",
          "name": "voteCount",
          "type": "uint256"
        }
      ],
      "stateMutability": "view",
      "type": "function"
    },
    {
      "inputs": [
        {
          "internalType": "uint256",
          "name": "proposal",
          "type": "uint256"
        }
      ],
      "name": "vote",
      "outputs": [],
      "stateMutability": "nonpayable",
      "type": "function"
    },
    {
      "inputs": [
        {
          "internalType": "address",
          "name": "",
          "type": "address"
        }
      ],
      "name": "voters",
      "outputs": [
        {
          "internalType": "uint256",
          "name": "weight",
          "type": "uint256"
        },
        {
          "internalType": "bool",
          "name": "voted",
          "type": "bool"
        },
        {
          "internalType": "address",
          "name": "delegate",
          "type": "address"
        },
        {
          "internalType": "uint256",
          "name": "vote",
          "type": "uint256"
        }
      ],
      "stateMutability": "view",
      "type": "function"
    },
    {
      "inputs": [],
      "name": "winnerName",
      "outputs": [
        {
          "internalType": "string",
          "name": "winnerName_",
          "type": "string"
        }
      ],
      "stateMutability": "view",
      "type": "function"
    },
    {
      "inputs": [],
      "name": "winningProposal",
      "outputs": [
        {
          "internalType": "uint256",
          "name": "winningProposal_",
          "type": "uint256"
        }
      ],
      "stateMutability": "view",
      "type": "function"
    }
  ],
  "bytecode": "0x6080604052620151806003553480156200001857600080fd5b506040516200189c3803806200189c83398181016040528101906200003e919062000372565b336000806101000a81548173ffffffffffffffffffffffffffffffffffffffff021916908373ffffffffffffffffffffffffffffffffffffffff16021790555060018060008060009054906101000a900473ffffffffffffffffffffffffffffffffffffffff1673ffffffffffffffffffffffffffffffffffffffff1673ffffffffffffffffffffffffffffffffffffffff1681526020019081526020016000206000018190555060005b8151811015620001b657600460405180604001604052808484815181106200013a577f4e487b7100000000000000000000000000000000000000000000000000000000600052603260045260246000fd5b6020026020010151815260200160008152509080600181540180825580915050600190039060005260206000209060020201600090919091909150600082015181600001908051906020019062000193929190620001be565b506020820151816001015550508080620001ad90620004c3565b915050620000e9565b50506200059e565b828054620001cc906200048d565b90600052602060002090601f016020900481019282620001f057600085556200023c565b82601f106200020b57805160ff19168380011785556200023c565b828001600101855582156200023c579182015b828111156200023b5782518255916020019190600101906200021e565b5b5090506200024b91906200024f565b5090565b5b808211156200026a57600081600090555060010162000250565b5090565b6000620002856200027f84620003eb565b620003b7565b9050808382526020820190508260005b85811015620002c95781518501620002ae888262000345565b84526020840193506020830192505060018101905062000295565b5050509392505050565b6000620002ea620002e4846200041a565b620003b7565b9050828152602081018484840111156200030357600080fd5b6200031084828562000457565b509392505050565b600082601f8301126200032a57600080fd5b81516200033c8482602086016200026e565b91505092915050565b600082601f8301126200035757600080fd5b815162000369848260208601620002d3565b91505092915050565b6000602082840312156200038557600080fd5b600082015167ffffffffffffffff811115620003a057600080fd5b620003ae8482850162000318565b91505092915050565b6000604051905081810181811067ffffffffffffffff82111715620003e157620003e06200056f565b5b8060405250919050565b600067ffffffffffffffff8211156200040957620004086200056f565b5b602082029050602081019050919050565b600067ffffffffffffffff8211156200043857620004376200056f565b5b601f19601f8301169050602081019050919050565b6000819050919050565b60005b83811015620004775780820151818401526020810190506200045a565b8381111562000487576000848401525b50505050565b60006002820490506001821680620004a657607f821691505b60208210811415620004bd57620004bc62000540565b5b50919050565b6000620004d0826200044d565b91507fffffffffffffffffffffffffffffffffffffffffffffffffffffffffffffffff82141562000506576200050562000511565b5b600182019050919050565b7f4e487b7100000000000000000000000000000000000000000000000000000000600052601160045260246000fd5b7f4e487b7100000000000000000000000000000000000000000000000000000000600052602260045260246000fd5b7f4e487b7100000000000000000000000000000000000000000000000000000000600052604160045260246000fd5b6112ee80620005ae6000396000f3fe608060405234801561001057600080fd5b506004361061009e5760003560e01c8063837b501811610066578063837b5018146101485780639e7b8d6114610178578063a3ec138d14610194578063e2ba53f0146101c7578063eac45421146101e55761009e565b80630121b93f146100a3578063013cf08b146100bf5780630fb5a6b4146100f05780635c19a95c1461010e578063609ff1bd1461012a575b600080fd5b6100bd60048036038101906100b89190610c91565b610203565b005b6100d960048036038101906100d49190610c91565b6103b4565b6040516100e7929190610f43565b60405180910390f35b6100f8610470565b6040516101059190611053565b60405180910390f35b61012860048036038101906101239190610c68565b610476565b005b610132610838565b60405161013f9190611053565b60405180910390f35b610162600480360381019061015d9190610c68565b61090c565b60405161016f9190611053565b60405180910390f35b610192600480360381019061018d9190610c68565b610924565b005b6101ae60048036038101906101a99190610c68565b610adb565b6040516101be949392919061106e565b60405180910390f35b6101cf610b38565b6040516101dc9190610f21565b60405180910390f35b6101ed610c1a565b6040516101fa9190610f06565b60405180910390f35b6000600160003373ffffffffffffffffffffffffffffffffffffffff1673ffffffffffffffffffffffffffffffffffffffff168152602001908152602001600020905060008160000154141561028e576040517f08c379a000000000000000000000000000000000000000000000000000000000815260040161028590610f73565b60405180910390fd5b8060010160009054906101000a900460ff16156102e0576040517f08c379a00000000000000000000000000000000000000000000000000000000081526004016102d790610f93565b60405180910390fd5b42600260003373ffffffffffffffffffffffffffffffffffffffff1673ffffffffffffffffffffffffffffffffffffffff1681526020019081526020016000208190555060018160010160006101000a81548160ff021916908315150217905550818160020181905550806000015460048381548110610389577f4e487b7100000000000000000000000000000000000000000000000000000000600052603260045260246000fd5b906000526020600020906002020160010160008282546103a991906110cf565b925050819055505050565b600481815481106103c457600080fd5b90600052602060002090600202016000915090508060000180546103e7906111a0565b80601f0160208091040260200160405190810160405280929190818152602001828054610413906111a0565b80156104605780601f1061043557610100808354040283529160200191610460565b820191906000526020600020905b81548152906001019060200180831161044357829003601f168201915b5050505050908060010154905082565b60035481565b6000600160003373ffffffffffffffffffffffffffffffffffffffff1673ffffffffffffffffffffffffffffffffffffffff16815260200190815260200160002090508060010160009054906101000a900460ff161561050b576040517f08c379a000000000000000000000000000000000000000000000000000000000815260040161050290610fb3565b60405180910390fd5b3373ffffffffffffffffffffffffffffffffffffffff168273ffffffffffffffffffffffffffffffffffffffff16141561057a576040517f08c379a000000000000000000000000000000000000000000000000000000000815260040161057190611033565b60405180910390fd5b5b600073ffffffffffffffffffffffffffffffffffffffff16600160008473ffffffffffffffffffffffffffffffffffffffff1673ffffffffffffffffffffffffffffffffffffffff16815260200190815260200160002060010160019054906101000a900473ffffffffffffffffffffffffffffffffffffffff1673ffffffffffffffffffffffffffffffffffffffff16146106ea57600160008373ffffffffffffffffffffffffffffffffffffffff1673ffffffffffffffffffffffffffffffffffffffff16815260200190815260200160002060010160019054906101000a900473ffffffffffffffffffffffffffffffffffffffff1691503373ffffffffffffffffffffffffffffffffffffffff168273ffffffffffffffffffffffffffffffffffffffff1614156106e5576040517f08c379a00000000000000000000000000000000000000000000000000000000081526004016106dc90610ff3565b60405180910390fd5b61057b565b60018160010160006101000a81548160ff021916908315150217905550818160010160016101000a81548173ffffffffffffffffffffffffffffffffffffffff021916908373ffffffffffffffffffffffffffffffffffffffff1602179055506000600160008473ffffffffffffffffffffffffffffffffffffffff1673ffffffffffffffffffffffffffffffffffffffff16815260200190815260200160002090508060010160009054906101000a900460ff161561081357816000015460048260020154815481106107e7577f4e487b7100000000000000000000000000000000000000000000000000000000600052603260045260246000fd5b9060005260206000209060020201600101600082825461080791906110cf565b92505081905550610833565b816000015481600001600082825461082b91906110cf565b925050819055505b505050565b6000806000905060005b60048054905081101561090757816004828154811061088a577f4e487b7100000000000000000000000000000000000000000000000000000000600052603260045260246000fd5b90600052602060002090600202016001015411156108f457600481815481106108dc577f4e487b7100000000000000000000000000000000000000000000000000000000600052603260045260246000fd5b90600052602060002090600202016001015491508092505b80806108ff906111d2565b915050610842565b505090565b60026020528060005260406000206000915090505481565b60008054906101000a900473ffffffffffffffffffffffffffffffffffffffff1673ffffffffffffffffffffffffffffffffffffffff163373ffffffffffffffffffffffffffffffffffffffff16146109b2576040517f08c379a00000000000000000000000000000000000000000000000000000000081526004016109a990610fd3565b60405180910390fd5b600160008273ffffffffffffffffffffffffffffffffffffffff1673ffffffffffffffffffffffffffffffffffffffff16815260200190815260200160002060010160009054906101000a900460ff1615610a42576040517f08c379a0000000000000000000000000000000000000000000000000000000008152600401610a3990611013565b60405180910390fd5b6000600160008373ffffffffffffffffffffffffffffffffffffffff1673ffffffffffffffffffffffffffffffffffffffff1681526020019081526020016000206000015414610a9157600080fd5b60018060008373ffffffffffffffffffffffffffffffffffffffff1673ffffffffffffffffffffffffffffffffffffffff1681526020019081526020016000206000018190555050565b60016020528060005260406000206000915090508060000154908060010160009054906101000a900460ff16908060010160019054906101000a900473ffffffffffffffffffffffffffffffffffffffff16908060020154905084565b60606004610b44610838565b81548110610b7b577f4e487b7100000000000000000000000000000000000000000000000000000000600052603260045260246000fd5b90600052602060002090600202016000018054610b97906111a0565b80601f0160208091040260200160405190810160405280929190818152602001828054610bc3906111a0565b8015610c105780601f10610be557610100808354040283529160200191610c10565b820191906000526020600020905b815481529060010190602001808311610bf357829003601f168201915b5050505050905090565b60008054906101000a900473ffffffffffffffffffffffffffffffffffffffff1681565b600081359050610c4d8161128a565b92915050565b600081359050610c62816112a1565b92915050565b600060208284031215610c7a57600080fd5b6000610c8884828501610c3e565b91505092915050565b600060208284031215610ca357600080fd5b6000610cb184828501610c53565b91505092915050565b610cc381611125565b82525050565b610cd281611137565b82525050565b6000610ce3826110b3565b610ced81856110be565b9350610cfd81856020860161116d565b610d0681611279565b840191505092915050565b6000610d1e6014836110be565b91507f486173206e6f20726967687420746f20766f74650000000000000000000000006000830152602082019050919050565b6000610d5e600e836110be565b91507f416c726561647920766f7465642e0000000000000000000000000000000000006000830152602082019050919050565b6000610d9e6012836110be565b91507f596f7520616c726561647920766f7465642e00000000000000000000000000006000830152602082019050919050565b6000610dde6027836110be565b91507f4f6e6c7920566f74696e67486561642063616e2067697665207269676874207460008301527f6f20766f74652e000000000000000000000000000000000000000000000000006020830152604082019050919050565b6000610e446019836110be565b91507f466f756e64206c6f6f7020696e2064656c65676174696f6e2e000000000000006000830152602082019050919050565b6000610e846018836110be565b91507f54686520766f74657220616c726561647920766f7465642e00000000000000006000830152602082019050919050565b6000610ec4601e836110be565b91507f53656c662d64656c65676174696f6e20697320646973616c6c6f7765642e00006000830152602082019050919050565b610f0081611163565b82525050565b6000602082019050610f1b6000830184610cba565b92915050565b60006020820190508181036000830152610f3b8184610cd8565b905092915050565b60006040820190508181036000830152610f5d8185610cd8565b9050610f6c6020830184610ef7565b9392505050565b60006020820190508181036000830152610f8c81610d11565b9050919050565b60006020820190508181036000830152610fac81610d51565b9050919050565b60006020820190508181036000830152610fcc81610d91565b9050919050565b60006020820190508181036000830152610fec81610dd1565b9050919050565b6000602082019050818103600083015261100c81610e37565b9050919050565b6000602082019050818103600083015261102c81610e77565b9050919050565b6000602082019050818103600083015261104c81610eb7565b9050919050565b60006020820190506110686000830184610ef7565b92915050565b60006080820190506110836000830187610ef7565b6110906020830186610cc9565b61109d6040830185610cba565b6110aa6060830184610ef7565b95945050505050565b600081519050919050565b600082825260208201905092915050565b60006110da82611163565b91506110e583611163565b9250827fffffffffffffffffffffffffffffffffffffffffffffffffffffffffffffffff0382111561111a5761111961121b565b5b828201905092915050565b600061113082611143565b9050919050565b60008115159050919050565b600073ffffffffffffffffffffffffffffffffffffffff82169050919050565b6000819050919050565b60005b8381101561118b578082015181840152602081019050611170565b8381111561119a576000848401525b50505050565b600060028204905060018216806111b857607f821691505b602082108114156111cc576111cb61124a565b5b50919050565b60006111dd82611163565b91507fffffffffffffffffffffffffffffffffffffffffffffffffffffffffffffffff8214156112105761120f61121b565b5b600182019050919050565b7f4e487b7100000000000000000000000000000000000000000000000000000000600052601160045260246000fd5b7f4e487b7100000000000000000000000000000000000000000000000000000000600052602260045260246000fd5b6000601f19601f8301169050919050565b61129381611125565b811461129e57600080fd5b50565b6112aa81611163565b81146112b557600080fd5b5056fea26469706673582212207a85d50c4e7f4e29b4bd79cd6acccac4542ce1a5e4eb26f8565164619f7cc70964736f6c63430008000033",
  "linkReferences": {},
  "deployedLinkReferences": {}
}